:020000040800F2
:100000003804002045010008710A0008B9070008FB
:100010006D0A0008C7050008411400080000000030
:100020000000000000000000000000001B0E00089F
:10003000CB05000800000000A50A0008050F000815
:100040005F0100085F0100085F010008C70D00089C
:100050005F0100085F010008CD0500085F0100088E
:10006000D10500085F010008D30500085F01000802
:100070005F0100085F0100085F0100085F010008E0
:100080005F0100085F0100085F0100085F010008D0
:100090005F0100085F0100085F010008D505000846
:1000A0005F0100085F0100085F0100085F010008B0
:1000B000A90F0008AB0F00085F0100085F010008EE
:1000C0005F0100085F0100085F010008190E0008C9
:1000D0005F010008291300085F0100082B130008C6
:1000E000CF050008C50D00085F0100085F0100088A
:1000F0005F0100085F0100085F0100085F01000860
:100100005F0100085F0100085F0100085F0100084F
:100110005F0100085F0100085F0100085F0100083F
:100120005F0100085F0100085F0100085F0100082F
:10013000DFF80CD000F026F90048004785410008A0
:10014000380400200648804706480047FEE7FEE7DF
:10015000FEE7FEE7FEE7FEE7FEE7FEE7FEE7FEE777
:10016000490F0008310100082DE9F04D81EA030430
:1001700004F0004B21F0004514464FF0000A23F034
:10018000004150EA050220D054EA01021DD0C5F317
:100190000A570246C5F31303C1F31300C1F30A560D
:1001A00040F4801543F48013A7EB0608101BD646D5
:1001B00008F2FD3873EB050002D308F1010801E0F5
:1001C00092185B41B8F1000F03DA00200146BDE848
:1001D000F08D00204FF48011064684460EE0171B78
:1001E00073EB050705D3121B63EB050306434CEACB
:1001F000010C49084FEA300092185B4150EA0107B0
:10020000EDD152EA030012D082EA040083EA05012C
:10021000084305D0101BAB4106D20122002306E0A3
:1002200000224FF0004302E06FF0010253101AEB7E
:1002300006004CEB085110EB0A0041EB0B01BDE846
:10024000F04D00F042B80EB5C10F80EAE0700844EE
:10025000CA07002140F233438DE80E000A460B46E0
:1002600000F042F803B000BD2DE9F05F0546002024
:1002700092469B4688460646814640241BE0284617
:1002800041464746224600F09EF853465A46C01A59
:10029000914110D311461846224600F085F82D1AD8
:1002A00067EB01084F4622460120002100F07CF850
:1002B00017EB00094E41201EA4F10104DFDC484683
:1002C00031462A464346BDE8F09F10B5141E73F12F
:1002D000000408DA401C41F1000192185B411A4306
:1002E00001D120F0010010BD2DE9F04D92469B4652
:1002F00011B1B1FA81F202E0B0FA80F220329046F8
:1003000000F052F804460F4640EA0A0041EA0B01A9
:1003100053465A46084313D0114653EA010019D0F8
:10032000C8F14002504600F04EF805460E465046D1
:100330005946424600F038F8084305D0012004E051
:1003400020463946BDE8F08D0020054346EAE076B8
:100350002C4337430A986305E40AA0EB0800002207
:10036000FD0A44EA47540A3002D500200146E9E775
:10037000010510196941DDE9084500196941BDE829
:10038000F04DA2E7064C074D06E0E06840F001039F
:1003900094E8070098471034AC42F6D3FFF7CCFE40
:1003A000C4440008E4440008202A04DB203A00FA90
:1003B00002F1002070479140C2F1200320FA03F3BC
:1003C000194390407047202A04DB203A21FA02F0BA
:1003D0000021704721FA02F3D040C2F1200291407F
:1003E000084319467047000070B5522400F08CFA9B
:1003F000204600F05BFA4FF47A7003F093FE00F0B1
:10040000DDF9054600F09AFA00BF25B905A001F014
:1004100019F8012070BD00F091FA09A001F012F85E
:100420000020F7E764657669636520636F6E6E652B
:1004300063742073756363656564210D0A000000B1
:1004400064657669636520636F6E6E6563742066AC
:10045000696C6564210D0A002DE9FC4706460F46CC
:1004600090461D464FF000090020009001900024A6
:100470008DF8007000F048FA002141EA4601C8B248
:1004800000F014FA4FF47A7003F04CFE00F096F985
:1004900010B14FF0FF3943E0384600F007FA4FF44F
:1004A0007A7003F03FFE00F089F910B14FF0FF3988
:1004B00036E000F029FA4FF47A7003F033FE0121A0
:1004C00001EB4601C8B200F0F1F900F077F910B184
:1004D0004FF0FF3924E0002413E000F09BF90DF801
:1004E00004004FF47A7003F01DFE681EA04203D092
:1004F000002000F0B7F902E0012000F0B3F9601C21
:10050000C4B2AC42E9DB00F019FA002405E01DF8A2
:10051000040008F80400601CC4B2AC42F7DB00BF62
:1005200000F00CFA4FFA89F0BDE8FC872DE9FC4792
:1005300006460F4690461D464FF0000900248DF8F0
:10054000007000BF05E018F80410601C0DF80010E2
:10055000C4B2AC42F7DB082D00DB072500F0D4F96C
:10056000002141EA4601C8B200F0A0F94FF47A70C8
:1005700003F0D8FD00F022F910B14FF0FF3916E07A
:1005800000240FE01DF8040000F090F94FF47A7099
:1005900003F0C8FD00F012F910B14FF0FF3904E08C
:1005A000601CC4B2681C8442ECDB00BF00BF00F0DA
:1005B000C5F94FFA89F0BDE8FC87002000E0401C37
:1005C0000A28FCD3704700BFFEE7704770477047AA
:1005D00070477047704700000549096821F0100115
:1005E000034A116011460968014311607047000019
:1005F0000020024001460020034A106800F0380045
:100600000843106070470000002002402DE9F041CF
:10061000024600250026002000230024002791F830
:1006200003C00CF00F0591F803C00CF0100CBCF1E6
:10063000000F03D091F802C04CEA050591F800C004
:10064000BCF1000F31D0146800202BE04FF0010CFA
:100650000CFA00F3B1F800C00CEA03069E4220D168
:1006600083004FF00F0C0CFA03F7BC4305FA03FCB0
:100670004CEA040491F803C0BCF1280F06D14FF0F6
:10068000010C0CFA00FCC2F814C00AE091F803C097
:10069000BCF1480F05D14FF0010C0CFA00FCC2F878
:1006A00010C0401C0828D1D31460B1F800C0BCF1C0
:1006B000FF0F34DD546800202EE000F1080C4FF0ED
:1006C000010808FA0CF3B1F800C00CEA03069E42D8
:1006D00021D183004FF00F0C0CFA03F7BC4305FA4D
:1006E00003FC4CEA040491F803C0BCF1280F05D1C7
:1006F00000F1080C08FA0CF8C2F8148091F803C055
:10070000BCF1480F07D100F1080C4FF0010808FABE
:100710000CF8C2F81080401C0828CED35460BDE805
:10072000F0810000F0B50A460023002400210025D6
:1007300000F00046B6F1004F02D11D4EF16901E014
:100740001B4E7168C0F3034583B200F44016B6F542
:10075000401F08D121F07061154E766826F0706652
:10076000134F7E6012E000F48016B6F5801F06D1AC
:10077000032606FA05F4A14341F0706106E0460D38
:10078000360103FA06F6B14341F0706122B1460D1D
:10079000360103FA06F6314300F00046B6F1004F89
:1007A00002D1034EF16101E0014E7160F0BD000025
:1007B000000001400161704700BFFEE710B5002452
:1007C00000F002FB802012490860642003F0AAFCBC
:1007D00040200F490860642003F0A4FC0AE0601C7C
:1007E000C4B2642003F09EFCFA2C03DD00F0A6F8EE
:1007F000012010BD06480838006800F0800000287D
:10080000EDD140200249091D08600020F1E70000F9
:10081000100C014070B50025002400F0D5FA00BF8F
:100820001AE0642003F07EFC40200D49086064203B
:1008300003F078FC6006040E09480838006800F0F0
:10084000800008B144F0010440200549091D0860FA
:10085000642003F067FC6D1C082DE2DB204670BDB0
:10086000100C014010B5044600F0C0FA40200E49BB
:100870000860642003F056FC24B180200A49091F57
:10088000086002E080200849086040200649091FEE
:100890000860642003F046FC40200349086064209F
:1008A00003F040FC10BD0000140C014070B504467C
:1008B00000F09CFA40201349086000251EE004F077
:1008C000800020B180200F49091F086002E08020CD
:1008D0000C4908606006040E642003F023FC4020ED
:1008E0000849091F0860642003F01CFC40200549EA
:1008F0000860642003F016FC681CC5B2082DDEDB1E
:1009000070BD0000140C014010B500F06FFA80209B
:100910000949086040200860642003F003FC80203F
:100920000549091D0860642003F0FCFB40200249D2
:10093000091D086010BD0000100C014010B500F04A
:1009400055FA8020074908604020091F086064208C
:1009500003F0E8FB80200349091F0860642003F0CE
:10096000E1FB10BD140C014005480649C86006486B
:10097000086106484861292048720020704700003D
:100980002D0500082000002059040008BB050008C0
:1009900000B589B00121022000F086F80121112064
:1009A00000F092F801212E48FFF7BCFE4FF4E070F2
:1009B000ADF8200018208DF8230003208DF82200C8
:1009C00008A92848FFF722FEFF20ADF8180040F2E2
:1009D000CF70ADF814000020ADF81A00ADF8160085
:1009E00005A9214800F00AFC6020ADF804000120B0
:1009F000ADF806000020ADF80A00ADF80C0001A922
:100A0000194800F0EBFA0821174800F033FB0020EA
:100A1000ADF80A0001A9144800F036FB082112487D
:100A200000F084FB0020ADF80A0001A90E4800F098
:100A30008BFB08210C4800F0D7FB01210A4800F08D
:100A4000B5FA0121084800F0BDFA07484430008893
:100A500040F4004004494431088009B000BD000062
:100A6000000C1A00001001400004004000BFFEE727
:100A70007047000000EB80014900014A1180704777
:100A80003404004000EB80014900014A11807047A6
:100A90003804004000EB80014900014A1180704792
:100AA0003C0400407047000029B1064AD269024365
:100AB000044BDA6104E0034AD2698243014BDA61F4
:100AC000704700000010024029B1064A92690243B3
:100AD000044B9A6104E0034A92698243014B9A6194
:100AE000704700000010024010B500F02FF84FF4DE
:100AF000803000F0EDF800F049F90446012C24D1D3
:100B00001020FFF769FD0220FFF774FD002000F0C0
:100B1000D3F8002000F00EF9A00200F0FFF84FF427
:100B2000E011200400F018F9012000F00FF900BFD7
:100B3000392000F09BF80028FAD0022000F01AF9C2
:100B400000BF00F0B1F80828FBD110BD0F480068C5
:100B500040F001000D490860084640680C49084013
:100B60000A494860084600680A4908400749086081
:100B70000846006820F4802008600846406820F499
:100B8000FE0048604FF41F0088607047001002406C
:100B90000000FFF8FFFFF6FE30B500210022002420
:100BA00000232D4D6D6805F00C0121B1042905D0FD
:100BB000082923D105E0294D056022E0274D056075
:100BC0001FE0254D6D6805F47012234D6D6805F426
:100BD0008034022505EB92421CB9214D5543056036
:100BE0000BE01D4D6D6805F400351DB11C4D5543DE
:100BF000056002E0194D5543056002E0174D0560A0
:100C000000BF00BF144D6D6805F0F0010909154DD6
:100C10006B5C0568DD4045600F4D6D6805F4E06173
:100C2000090A104D6B5C4568DD4085600A4D6D68B2
:100C300005F46051C90A0B4D6B5C4568DD40C56029
:100C4000054D6D6805F44041890B074D6B5CC56827
:100C5000B5FBF3F5056130BD0010024000127A00CB
:100C600000093D00000000201000002010B50146E2
:100C70000022002300204A11012A02D1094C2368D6
:100C800006E0022A02D1074C236A01E0054C636AA0
:100C900001F01F02012494401C400CB1012000E02F
:100CA000002010BD001002400248406800F00C0017
:100CB000704700000010024001460020034A5068BF
:100CC00020F0F00008435060704700000010024020
:100CD0001149096821F480310F4A116011460968F1
:100CE00021F480211160B0F5803F03D0B0F5802F52
:100CF0000ED106E00849096841F48031064A1160C6
:100D000007E00549096841F4A021034A116000E0A9
:100D100000BF00BF704700000010024001460020E5
:100D2000034A506820F4E0600843506070470000B8
:100D30000010024001460020034A506820F4605031
:100D400040EAC10050607047001002400149086647
:100D5000704700000000424202460020044B5868E1
:100D600020F47C1042EA01031843014B586070479D
:100D70000010024001460020034A506820F00300A2
:100D800008435060704700000010024038B5002052
:100D900000900024002500BF3120FFF767FF0546C3
:100DA0000098401C00900098B0F5A06F01D0002D75
:100DB000F2D03120FFF75AFF08B1012400E00024EF
:100DC000204638BD7047704708B58020ADF8000058
:100DD00048208DF8030069460348FFF717FC80217F
:100DE0000148FFF7E7FC08BD000C014008B5802072
:100DF000ADF8000003208DF8020010208DF80300EC
:100E000069460448FFF702FC80210248FFF7D2FC44
:100E100008BD0000000C01407047704710B500F09D
:100E200001F810BD0CB50020019000903348006817
:100E300040F480303149086000BF3048006800F459
:100E4000003000900198401C0190009818B901985A
:100E5000B0F5A06FF1D12948006800F4003010B15E
:100E60000120009001E0002000900098012843D16B
:100E70002348006840F010002149086008460068D7
:100E800020F0030008600846006840F00200086097
:100E90001A48406819494860084640684860084652
:100EA000406840F4806048600846406820F47C1048
:100EB00048600846406840F4E8104860084600680A
:100EC00040F08070086000BF0C48006800F00070BF
:100ED0000028F9D00948406820F00300074948601D
:100EE0000846406840F00200486000BF0348406880
:100EF00000F00C000828F9D10CBD000000100240E1
:100F000000200240704700004FF0E021096921F005
:100F100004014FF0E0221161C21700EB5272C2F3DC
:100F2000C702074B1A701946097801EB4102C2EB60
:100F3000C1114FF6FF7202EAC101024A11807047E7
:100F4000140000201600002010B51348006840F07F
:100F500001001149086008464068104908400E49E0
:100F60004860084600680E4908400B49086008467A
:100F7000006820F4802008600846406820F4FE00E5
:100F800048604FF41F008860FFF748FF4FF0006093
:100F90000449086010BD0000001002400000FFF886
:100FA000FFFFF6FE08ED00E07047704721B10288B0
:100FB00042F08002028004E002884FF67F731A40FC
:100FC0000280704721B1028842F00102028004E0F1
:100FD00002884FF6FE731A400280704770B50024F5
:100FE00000220023058C4FF6FE7635400584028CE6
:100FF0008388048B4FF68F752C40B51E2C400D88CE
:101000002C43751E2A400D892A434D882A43144DCE
:10101000A8420BD0134DA84208D0134DA84205D0CA
:10102000124DA84202D0124DA84213D14FF6F775C7
:101030002A404D892A434FF6FB752A408D882A4362
:101040004FF6FF652B404FF6FF552B408D892B4304
:10105000CD892B4383800483CD888586028470BD2F
:10106000002C014000340140004001400044014098
:10107000004801400A460021018B4FF6F7731940E2
:10108000114301837047000070B500240022002343
:10109000058C4FF6EF7635400584028C8388048BEF
:1010A00048F6FF752C404FF6FF452C400D884FF653
:1010B000FF7606EA05252C434FF6DF752A400D8999
:1010C00006EA05152A434D8806EA05152A43154DFB
:1010D000A84202D0144DA8421DD14FF67F752A4078
:1010E0004D894FF6FF7606EA05152A434FF6BF7580
:1010F0002A408D8806EA05152A434FF6FF352B4016
:101100004FF2FF752B408D8906EA85052B43CD896B
:1011100006EA85052B4383800483CD8805870284F6
:1011200070BD0000002C0140003401400A4600213F
:10113000018B4FF2FF7319404FF6FF7303EA02234E
:10114000194301837047000070B50024002200237A
:10115000058C4FF6FF6635400584028C8388848BAE
:101160004FF68F752C404FF6FC752C400D882C43A4
:101170004FF6FF552A400D894FF6FF7606EA052502
:101180002A434D8806EA05252A43154DA84202D078
:10119000144DA8421DD14FF2FF752A404D894FF6DC
:1011A000FF7606EA05252A434FF6FF352A408D884B
:1011B00006EA05252A434EF6FF752B404DF6FF75CE
:1011C0002B408D8906EA05152B43CD8906EA0515C6
:1011D0002B4383808483CD888587028470BD000083
:1011E000002C0140003401400A460021818B4FF65B
:1011F000F773194011438183704700000022028871
:101200001D4B98420ED01D4B98420BD0B0F1804F31
:1012100008D01B4B984205D01A4B984202D01A4B6B
:10122000984204D14FF68F731A404B881A43174BDC
:10123000984207D0164B984204D04FF6FF431A400D
:10124000CB881A4302808B8883850B8803850A4BE1
:1012500098420BD0094B984208D00E4B984205D0CB
:101260000D4B984202D00D4B984201D10B7A038668
:101270000123838270470000002C014000340140AC
:101280000004004000080040000C00400010004036
:10129000001400400040014000440140004801406B
:1012A00000B585B0012144F20400FFF70DFC4FF4B6
:1012B0000070ADF8100018208DF8130003208DF891
:1012C000120004A91648FFF7A1F94FF48060ADF8A9
:1012D000100004208DF8130004A91148FFF796F9B7
:1012E0004FF4E13000900020ADF80400ADF80600A6
:1012F000ADF80800ADF80C000C20ADF80A00694606
:10130000084800F02DF80748008820F04000054903
:1013100008800121034800F009F805B000BD000075
:1013200000080140003801407047704721B18289B0
:1013300042F40052828104E082894DF6FF731A4024
:101340008281704702460020B1F5007F00D100BFC6
:1013500013880B400BB1012000E000207047000013
:101360002DE9F04786B005460E460024A24600BF90
:10137000A1460027B08900B100BF2F462C8A4CF649
:10138000FF700440F08804432C82AC894EF6F310C1
:101390000440B08831890843718908430443AC8113
:1013A000AC8A4FF6FF400440B0890443AC8201A8E8
:1013B000FFF7F2FB1F48874202D1DDF810A001E0E1
:1013C000DDF80CA0A88900F4004040B10AEBCA0087
:1013D00000EB0A1031684900B0FBF1F807E00AEBB6
:1013E000CA0000EB0A1031688900B0FBF1F86420F4
:1013F000B8FBF0F004012009642101FB1089A889E1
:1014000000F4004040B1322000EBC900B0FBF1F025
:1014100000F00700044308E0322000EB09106421CB
:10142000B0FBF1F000F00F0004432C8106B0BDE8E2
:10143000F087000000380140C1F308028280704745
:1014400000BFFEE70FB4054B10B503A9044A02988C
:1014500000F018F810BC5DF814FB000061410008B2
:101460001C00002002E008C8121F08C1002AFAD19F
:1014700070477047002001E001C1121F002AFBD114
:10148000704700002DE9FF4F8DB09B460F46044684
:10149000002606E025280BD05A460F999047641C79
:1014A000761C20780028F5D111B03046BDE8F08FC9
:1014B0000025A8460122984900E0054314F8013FA1
:1014C000203B02FA03F00842F7D120782E2817D1EA
:1014D00014F8010F45F004052A280ED06FF02F02F2
:1014E0002078A0F1300109290AD808EB880102EB25
:1014F000410100EB0108641CF2E757F8048B641CFF
:1015000020786C280DD004DC4C2812D06A2811D128
:1015100004E074280DD07A280CD10AE045F40015B7
:1015200007E0617845F48015814202D1641C05F51D
:101530008015641C2278692A45D008DC002AB3D0C3
:10154000582A69D0632A10D0642A08D13BE0702A57
:1015500067D0732A13D0752A5CD0782A5CD01046E5
:101560005A460F999047761CD3E017F8040B8DF874
:10157000000000208DF80100E946012003E057F843
:10158000049B4FF0FF3069074FF0000501D40AE0DB
:101590006D1C45450DDA8542FADB19F80510002966
:1015A000F6D106E06D1C8542FCDB19F80510002918
:1015B000F8D12E4404E019F8010B5A460F999047D0
:1015C0006D1EF8D2A5E00A200021CDE90801C5F37F
:1015D000025002280DD001CFC117031E71F1000384
:1015E0000DDA4FF0000CD0EB0C006CEB01012D2359
:1015F00008E0FF1D27F00707F7E80201EDE72B05DC
:1016000004D52B238DF8283001233BE0EB0739D09C
:101610002023F7E70A2000E010200021CDE908018F
:1016200007E01020002145F00405CDE908014FF046
:101630000808C5F3025002280FD001CF00214FF057
:10164000000A2B071FD5702A0DD0DDE908C38CF0E6
:10165000100C5CEA030C0CD015E0FF1D27F0070707
:10166000F7E80201EBE740228DF828204FF0010A4D
:101670000BE050EA010306D030238DF828308DF8B6
:10168000292002239A46582A04D024A20DF12009C9
:101690000B9209E026A2F9E7DDE90823FEF7E4FD55
:1016A0000B9B9B5C09F8013D50EA0102F4D1ADEBC4
:1016B000090020300890680701D44FF0010808990C
:1016C000884502DDA8EB010000E0002080460025EF
:1016D00006E00AA85A46405D0F9990476D1C761C9B
:1016E0005545F6DB04E030205A460F999047761CAA
:1016F000B8F10001A8F10108F5DC05E019F8010BCB
:101700005A460F999047761C0899481E0890002960
:10171000F4DC641CC5E600000928010030313233D6
:10172000343536373839616263646566000000001D
:101730003031323334353637383941424344454607
:10174000000000002DE9FC4107464FF0FF34002067
:10175000019000BF0090684601F04CF904469DF8E6
:101760000000012804D0012002F0AEFA204444B267
:101770008CB901A801F09EFA204444B244B9BDF9E5
:101780000400FEF760FD0E460546C7E9005604E07A
:101790004FF0FF3401E04FF0FF342046BDE8FC81FC
:1017A0002DE9FC4781464FF0FF340020019000BF37
:1017B0000090684601F01EF904469DF8000020B133
:1017C000002002F081FA204444B2B4B901A801F02B
:1017D00071FA204444B26CB9BDF90400FEF733FD40
:1017E00007460022074BFEF7BFFC05460E46C9E937
:1017F000005604E04FF0FF3401E04FF0FF34204684
:10180000BDE8FC87000059403EB505464FF0FF3467
:101810000020019002900090684601F0EBF8044629
:101820009DF80000012804D0012002F04DFA204468
:1018300044B2DCB901A801F079FA204444B294B969
:10184000BDF90400FEF7FFFCC5E90001BDF9060083
:10185000FEF7F9FCC5E90201BDF90800FEF7F3FC4B
:10186000C5E9040104E04FF0FF3401E04FF0FF341C
:1018700020463EBDFEB505464FF0FF3400200190E6
:1018800002900090684601F0B5F804469DF800000B
:1018900020B1002002F018FA204444B254BB01A841
:1018A00001F044FA204444B20CBBBDF90400FEF739
:1018B000CAFC06460022114BFEF756FCC5E90001A2
:1018C000BDF90600FEF7BFFC064600220B4BFEF7F3
:1018D0004BFCC5E90201BDF90800FEF7B4FC064661
:1018E0000022064BFEF740FCC5E9040104E04FF07E
:1018F000FF3401E04FF0FF342046FEBD00005940A8
:101900002DE9FC4107464FF0FF340020019000BF55
:101910000090684601F06EF804469DF8000001282A
:1019200004D0012002F0D0F9204444B28CB901A8BF
:1019300001F05CFA204444B244B9BDF90400FEF75A
:1019400082FC0E460546C7E9005604E04FF0FF341E
:1019500001E04FF0FF342046BDE8FC812DE9FC4753
:1019600081464FF0FF340020019000BF0090684690
:1019700001F040F804469DF8000020B1002002F07C
:10198000A3F9204444B2B4B901A801F02FFA2044CD
:1019900044B26CB9BDF90400FEF755FC07460022BD
:1019A000074BFEF7E1FB05460E46C9E9005604E089
:1019B0004FF0FF3401E04FF0FF342046BDE8FC87D4
:1019C000000059402DE9FC4107464FF0FF3400204C
:1019D000019000BF0090684601F00CF804469DF8A5
:1019E0000000012804D0012002F06EF9204444B226
:1019F0008CB901A801F036FA204444B244B9BDF9CB
:101A00000400FEF720FC0E460546C7E9005604E038
:101A10004FF0FF3401E04FF0FF342046BDE8FC8179
:101A20002DE9FC4781464FF0FF340020019000BFB4
:101A30000090684600F0DEFF04469DF8000020B1EB
:101A4000002002F041F9204444B2B4B901A801F0E9
:101A500009FA204444B26CB9BDF90400FEF7F3FB67
:101A600007460022074BFEF77FFB05460E46C9E9F5
:101A7000005604E04FF0FF3401E04FF0FF34204601
:101A8000BDE8FC87000059402DE9FC4781464FF036
:101A9000FF340020019000BF0090684600F0DCFF9A
:101AA00004469DF8000020B1002002F05BF92044BC
:101AB00044B2B4B901A801F041FA204444B26CB96F
:101AC000BDF90400FEF7BFFB07460022074BFEF7F7
:101AD0004BFB05460E46C9E9005604E04FF0FF34C3
:101AE00001E04FF0FF342046BDE8FC8700003040A5
:101AF0002DE9FC4781464FF0FF340020019000BFE4
:101B00000090684600F0A8FF04469DF800000128F8
:101B100004D0012002F026F9204444B2B4B901A84F
:101B200001F00CFA204444B26CB9BDF90400FEF790
:101B30008AFB07460022084BFEF716FB05460E46B9
:101B4000C9E9005604E04FF0FF3401E04FF0FF34E4
:101B50002046BDE8FC87000000208C40FEB505460D
:101B60004FF0FF340020019002900090684600F092
:101B700073FF04469DF8000020B1002002F0F2F847
:101B8000204444B254BB01A801F014FA204444B2EA
:101B90000CBBBDF90400FEF756FB06460022114BB4
:101BA000FEF7E2FAC5E90001BDF90800FEF74BFBBC
:101BB000064600220B4BFEF7D7FAC5E90401BDF932
:101BC0000600FEF740FB06460022064BFEF7CCFA65
:101BD000C5E9020104E04FF0FF3401E04FF0FF34AB
:101BE0002046FEBD00003040FEB504464FF0FF35F4
:101BF0000020019002900090684600F02DFF0546FD
:101C00009DF80000012803D0012002F0ABF8054642
:101C10004DBB01A801F0CEF905460DBBBDF904008E
:101C2000FEF711FB06460022114BFEF79DFAC4E9B0
:101C30000001BDF90800FEF706FB064600220C4B2A
:101C4000FEF792FAC4E90401BDF90600FEF7FBFABB
:101C500006460022064BFEF787FAC4E9020104E0BB
:101C60004FF0FF3501E04FF0FF352846FEBD000084
:101C700000208C402DE9FC4781464FF0FF340020C6
:101C8000019000BF0090684600F0E6FE04469DF813
:101C9000000020B1002002F065F8204444B2B4B93D
:101CA00001A801F0E7F9204444B26CB9BDF9040081
:101CB000FEF7C9FA07460022074BFEF755FA05461C
:101CC0000E46C9E9005604E04FF0FF3401E04FF042
:101CD000FF342046BDE8FC87000030402DE9FC477A
:101CE00081464FF0FF340020019000BF009068460D
:101CF00000F0B2FE04469DF80000012804D0012047
:101D000002F030F8204444B2B4B901A801F0B2F9AD
:101D1000204444B26CB9BDF90400FEF794FA0746BA
:101D20000022084BFEF720FA05460E46C9E9005688
:101D300004E04FF0FF3401E04FF0FF342046BDE8EF
:101D4000FC87000000208C402DE9FC4781464FF0C5
:101D5000FF340020019000BF0090684600F07CFE38
:101D600004469DF8000020B1002001F0FBFF204454
:101D700044B2B4B901A801F0B9F9204444B26CB935
:101D8000BDF90400FEF75FFA07460022074BFEF795
:101D9000EBF905460E46C9E9005604E04FF0FF3462
:101DA00001E04FF0FF342046BDE8FC8700003040E2
:101DB0002DE9FC4781464FF0FF340020019000BF21
:101DC0000090684600F048FE04469DF80000012897
:101DD00004D0012001F0C6FF204444B2B4B901A8E8
:101DE00001F084F9204444B26CB9BDF90400FEF757
:101DF0002AFA07460022084BFEF7B6F905460E46BA
:101E0000C9E9005604E04FF0FF3401E04FF0FF3421
:101E10002046BDE8FC87000000208C402DE9FC41F5
:101E200004464FF0FF35002000900190684601F015
:101E3000D5F905460DBBBDF90000FEF704FA0646CC
:101E40000022104BFEF790F9C4E90001BDF9020031
:101E5000FEF7F9F9064600220A4BFEF785F9C4E9B8
:101E60000201BDF90400FEF7EEF906460022054B1B
:101E7000FEF77AF9C4E9040101E0681E45B228467C
:101E8000BDE8FC81000059402DE9FC4781464FF038
:101E9000FF340020019000BF0090684600F00EFE65
:101EA00004469DF8000020B1002001F0A9FF204465
:101EB00044B2B4B901A801F069FA204444B26CB943
:101EC000BDF90400FEF7BFF907460022074BFEF7F5
:101ED0004BF905460E46C9E9005604E04FF0FF34C1
:101EE00001E04FF0FF342046BDE8FC8700003040A1
:101EF0002DE9FC4781464FF0FF340020019000BFE0
:101F00000090684600F0DAFD04469DF800000128C4
:101F100004D0012001F074FF204444B2B4B901A8F8
:101F200001F034FA204444B26CB9BDF90400FEF764
:101F30008AF907460022084BFEF716F905460E46B9
:101F4000C9E9005604E04FF0FF3401E04FF0FF34E0
:101F50002046BDE8FC87000000208C40FEB5054609
:101F60004FF0FF340020019002900090684600F08E
:101F7000A5FD04469DF8000020B1002001F040FFBF
:101F8000204444B254BB01A801F03CFA204444B2BE
:101F90000CBBBDF90400FEF756F906460022114BB2
:101FA000FEF7E2F8C5E90001BDF90600FEF74BF9BE
:101FB000064600220B4BFEF7D7F8C5E90201BDF932
:101FC0000800FEF740F906460022064BFEF7CCF863
:101FD000C5E9040104E04FF0FF3401E04FF0FF34A5
:101FE0002046FEBD00003040FEB505464FF0FF34F0
:101FF0000020019002900090684600F05FFD0446CA
:102000009DF80000012804D0012001F0F9FE2044D1
:1020100044B254BB01A801F0F5F9204444B20CBB12
:10202000BDF90400FEF70FF906460022114BFEF73A
:102030009BF8C5E90001BDF90600FEF704F9064664
:1020400000220C4BFEF790F8C5E90201BDF908002B
:10205000FEF7F9F806460022064BFEF785F8C5E9BB
:10206000040104E04FF0FF3401E04FF0FF3420465C
:10207000FEBD000000208C402DE9FC4781464FF05A
:10208000FF340020019000BF0090684600F016FD6C
:1020900004469DF8000020B1002001F0B1FE20446C
:1020A00044B2B4B901A801F00DFA204444B26CB9AD
:1020B000BDF90400FEF7C7F807460022074BFEF7FC
:1020C00053F805460E46C9E9005604E04FF0FF34C8
:1020D00001E04FF0FF342046BDE8FC8700003040AF
:1020E0002DE9FC4781464FF0FF340020019000BFEE
:1020F0000090684600F0E2FC04469DF800000128CC
:1021000004D0012001F07CFE204444B2B4B901A8FF
:1021100001F0D8F9204444B26CB9BDF90400FEF7CF
:1021200092F807460022084BFEF71EF805460E46B9
:10213000C9E9005604E04FF0FF3401E04FF0FF34EE
:102140002046BDE8FC87000000208C402DE9FC47BC
:1021500081464FF0FF340020019000BF0090684698
:1021600000F0ACFC04469DF8000020B1002001F016
:1021700047FE204444B2B4B901A801F0DFF920447D
:1021800044B26CB9BDF90400FEF75DF807460022C1
:10219000074BFDF7E9FF05460E46C9E9005604E086
:1021A0004FF0FF3401E04FF0FF342046BDE8FC87DC
:1021B000000030402DE9FC4781464FF0FF340020FD
:1021C000019000BF0090684600F078FC04469DF83E
:1021D0000000012804D0012001F012FE204444B286
:1021E000B4B901A801F0AAF9204444B26CB9BDF910
:1021F0000400FEF728F807460022084BFDF7B4FF5D
:1022000005460E46C9E9005604E04FF0FF3401E0F0
:102210004FF0FF342046BDE8FC87000000208C40D2
:102220002DE9F84306464FF0FF390020009000BF2B
:10223000684601F0BFF98146B9F1000F0DD1BDF933
:102240000000FEF700F807460022064BFDF78CFF62
:1022500004460D46C6E9004501E04FF0FF39484607
:10226000BDE8F883000059402DE9FC4104464FF0D9
:10227000FF35002000900190684601F0D7F905462F
:102280000DBBBDF90000FDF7DEFF06460022104B36
:10229000FDF76AFFC4E90001BDF90200FDF7D3FFB5
:1022A000064600220A4BFDF75FFFC4E90201BDF9B3
:1022B0000400FDF7C8FF06460022054BFDF754FF5A
:1022C000C4E9040101E04FF0FF352846BDE8FC8178
:1022D000000059402DE9F84306464FF0FF39002031
:1022E000009000BF684601F001FA8146B9F1000F85
:1022F0000DD1BDF90000FDF7A6FF07460022064BF1
:10230000FDF732FF04460D46C6E9004501E04FF0F7
:10231000FF394846BDE8F883000059402DE9F843ED
:1023200006464FF0FF390020009000BF684601F0DC
:1023300019FA8146B9F1000F0DD1BDF90000FDF782
:1023400082FF07460022064BFDF70EFF04460D46AE
:10235000C6E9004501E04FF0FF394846BDE8F88383
:10236000000059402DE9F84306464FF0FF390020A0
:10237000009000BF684601F031FA8146B9F1000FC4
:102380000DD1BDF90000FDF75EFF07460022064BA8
:10239000FDF7EAFE04460D46C6E9004501E04FF0B0
:1023A000FF394846BDE8F883000030402DE9FC4184
:1023B00004464FF0FF35002000900190684601F080
:1023C00049FA05460DBBBDF90000FDF73CFF064686
:1023D0000022104BFDF7C8FEC4E90001BDF9020060
:1023E000FDF731FF064600220A4BFDF7BDFEC4E9AA
:1023F0000201BDF90400FDF726FF06460022054B49
:10240000FDF7B2FEC4E9040101E04FF0FF352846B4
:10241000BDE8FC81000030402DE9F84306464FF04E
:10242000FF390020009000BF684601F073FA814632
:10243000B9F1000F0DD1BDF90000FDF704FF07460B
:102440000022064BFDF790FE04460D46C6E9004506
:1024500001E04FF0FF394846BDE8F8830000304006
:102460002DE9F84306464FF0FF390020009000BFE9
:10247000684601F08BFA8146B9F1000F0DD1BDF924
:102480000000FDF7E0FE07460022064BFDF76CFE5C
:1024900004460D46C6E9004501E04FF0FF394846C5
:1024A000BDE8F883000030402DE9F84306464FF0C0
:1024B000FF390020009000BF684600F053FE8146BF
:1024C000B9F1000F0DD1BDF90000FDF7BCFE0746C4
:1024D0000022064BFDF748FE04460D46C6E90045BE
:1024E00001E04FF0FF394846BDE8F883000059404D
:1024F0002DE9F84381464FF0FF360020009000BFE1
:10250000684600F0CBFE06466EB9BDF90000FDF747
:102510009AFE07460022064BFDF726FE04460D46AE
:10252000C9E9004501E0701E46B23046BDE8F883B7
:10253000000059402DE9F84381464FF0FF36002056
:10254000009000BF684600F0E5FE06466EB9BDF992
:102550000000FDF778FE07460022064BFDF704FE5B
:1025600004460D46C9E9004501E0701E46B23046FA
:10257000BDE8F8830000594030B5EDB04FF0FF34AE
:10258000002500206B906A90699066906590649039
:10259000619060905F905C905B905A9057905690DD
:1025A00055905490519050904F904C904B904A9031
:1025B00000214691479144904590429143913A9130
:1025C0003B9138903990369137912E912F912C90E4
:1025D0002D902A912B9122912391209121911E914E
:1025E0001F911691179114901590129013900A90C4
:1025F0000B900891099106900790B2A0FEF722FF78
:10260000FEF7B2F9B84800F0BDFA044600BF28460C
:1026100001F0CAFC0444072001F040FC04446BA80C
:1026200000F048FB04446AA800F0E0FB044469A8F9
:1026300000F018FC044467A800F078FB044421462D
:10264000AAA0FEF7FFFEBDF9AC11AFA0FEF7FAFE9F
:10265000BDF9A811B1A0FEF7F5FEBDF9A411B4A013
:10266000FEF7F0FEB7A0FEF7EDFE66A801F0B6F8A3
:10267000044465A801F04EF9044464A801F086F909
:10268000044462A801F0E6F804442146AEA0FEF737
:10269000D9FEBDF99811B2A0FEF7D4FEBDF9941190
:1026A000B4A0FEF7CFFEBDF99011B7A0FEF7CAFEA9
:1026B000A4A0FEF7C7FE61A800F068FE044460A86D
:1026C00000F000FF04445FA800F038FF04445DA858
:1026D00000F098FE04442146B0A0FEF7B3FEBDF919
:1026E0008411B5A0FEF7AEFEBDF98011B7A0FEF7CC
:1026F000A9FEBDF97C11BAA0FEF7A4FE91A0FEF7D9
:10270000A1FE0C2001F0CAFB04445CA800F016FCFA
:1027100004445BA800F0EAFC04445AA800F0AAFCB8
:10272000044458A800F046FC044457A801F06AF994
:10273000044456A801F014FA044455A801F04CFAD8
:10274000044454A801F084FA044452A801F096F914
:10275000044451A800F02EFF044450A800F0C6FF26
:1027600004444FA800F0FEFF04444DA800F05EFFB3
:1027700004444CA800F0F6FC04444BA800F08EFD85
:1027800004444AA800F0C6FD044448A800F026FD11
:10279000044446A8FFF704F8044446A8FEF7D2FF15
:1027A000044444A8FFF7DAF8044444A8FFF7A8F863
:1027B000044442A8FFF734F9044442A8FFF702F9A1
:1027C00004443CA8FFF756F804443CA8FFF71CF863
:1027D00004443AA8FFF7C6FD044438A8FFF71CFEDE
:1027E000044436A8FFF73CFE044430A8FFF7DEFDA2
:1027F00004442EA8FFF748FB04442CA8FFF73CFC38
:1028000004442AA8FFF7A2FC04442EA8FFF770FB9B
:1028100004442CA8FFF764FC04442AA8FFF7CAFC70
:10282000044424A8FFF79AFB044424A8FFF7DCFB28
:10283000044422A8FFF728F9044420A8FFF784FAEB
:1028400004441EA8FFF716FA044422A8FFF750F923
:10285000044420A8FFF7ACFA04441EA8FFF73EFA90
:10286000044418A8FFF77AF9044418A8FFF7BCF944
:10287000044416A8FFF7D4FC044414A8FFF72AFD6B
:10288000044412A8FFF74AFD04440CA8FFF7ECFC2F
:1028900004440AA8FFF708FE044408A8FFF728FE2E
:1028A000044406A8FFF746FE04446846FFF7B6FA5C
:1028B00004440225284601F077FB044420466DB00D
:1028C00030BD0000626E6F3035355F646174615FEA
:1028D000726561646F75745F74656D706C61746549
:1028E00028290D0A000000002000002061636365B4
:1028F0006C20446174613A20636F6D726573203D92
:102900002025640D0A000000616363656C5F6461EB
:10291000746178203D2025640D0A000061636365C1
:102920006C5F6461746179203D2025640D0A0000AC
:10293000616363656C5F646174617A203D20256426
:102940000D0A0000200D0A006D616720446174616A
:102950003A20636F6D726573203D2025640D0A0077
:102960006D61675F6461746178203D2025640D0AA4
:10297000000000006D61675F6461746179203D2033
:1029800025640D0A000000006D61675F6461746179
:102990007A203D2025640D0A000000006779726FDF
:1029A00020446174613A20636F6D726573203D202D
:1029B00025640D0A000000006779726F5F6461741E
:1029C0006178203D2025640D0A0000006779726F50
:1029D0005F6461746179203D2025640D0A00000068
:1029E0006779726F5F646174617A203D2025640DA0
:1029F0000A000000F8B504464FF0FF3500200090B3
:102A0000461E1448006810B96FF07E00F8BD1148EA
:102A10000068007918B1002001F014FB06461EB1D1
:102A20000C480068007980B90A490968487A094960
:102A3000096801236A460F693B21B84705469DF89E
:102A4000000000F00100207001E04FF0FF35284643
:102A5000DCE7000018000020F8B504464FF0FF3511
:102A600000200090461E1448006810B96FF07E00E8
:102A7000F8BD11480068007918B1002001F0E2FAB1
:102A800006461EB10C480068007980B90A490968F9
:102A9000487A0949096801236A460F693B21B8470A
:102AA00005469DF80000C0F38000207001E04FF063
:102AB000FF352846DCE7000018000020F8B5044682
:102AC0004FF0FF3500200090461E1448006810B9F2
:102AD0006FF07E00F8BD11480068007918B1002041
:102AE00001F0B0FA06461EB10C480068007980B9C2
:102AF0000A490968487A0949096801236A460F6941
:102B00003B21B84705469DF80000C0F34000207007
:102B100001E04FF0FF352846DCE7000018000020F8
:102B2000F8B504464FF0FF3500200090461E1448CB
:102B3000006810B96FF07E00F8BD11480068007998
:102B400018B1002001F07EFA06461EB10C4800685C
:102B5000007980B90A490968487A09490968012356
:102B60006A460F693D21B84705469DF8000000F010
:102B70000F00207001E04FF0FF352846DCE7000031
:102B800018000020FEB505464FF0FF3400200290EB
:102B9000019000904648056001460968487A44491A
:102BA0000968012301AACE680721B04704464049BD
:102BB0000968487A3E490968012302AA0E69002182
:102BC000B047204444B29DF80800394909680870AC
:102BD00037490968487A36490968012302AA0E690B
:102BE0001946B047204444B29DF8080030490968AE
:102BF00048712F490968487A2D490968012302AABA
:102C00000E690221B047204444B29DF808002849CB
:102C10000968887126490968487A254909680123A5
:102C200002AA0E690321B047204444B29DF808006F
:102C30001F490968C8711E490968487A1C49096812
:102C4000012302AA0E690621B047204444B29DF830
:102C5000080017490968087215490968487A144933
:102C6000096802236A460E690421B047204444B231
:102C70009DF800008DF800009DF800009DF80110FF
:102C800040EA01200A490968488009490968487AE8
:102C900007490968012302AA0E690721B0472044A9
:102CA00044B29DF808000249096808712046FEBD3B
:102CB00018000020F8B504464FF0FF3500200090C2
:102CC000461E1948006810B96FF07E00F8BD16481E
:102CD0000068007918B1002001F0B4F906461EB171
:102CE000114800680079D8B90F490968487A0E4937
:102CF000096802236A460F690821B84705469DF80E
:102D000000008DF800009DF801008DF801009DF88D
:102D100000009DF8011049B240EA0120208001E046
:102D20004FF0FF352846D1E7180000202DE9FC417F
:102D300004464FF0FF35002000900190461E2A48BF
:102D4000006818B96FF07E00BDE8FC812648006875
:102D5000007918B1002001F075F906461EB122482D
:102D600000680079D8BB20490968487A1E4909687B
:102D700006236A460F690821B84705469DF80000FA
:102D80008DF800009DF801008DF801009DF800000D
:102D90009DF8011049B240EA012020809DF8020010
:102DA0008DF802009DF803008DF803009DF80200E5
:102DB0009DF8031049B240EA012060809DF80400AC
:102DC0008DF804009DF805008DF805009DF80400BD
:102DD0009DF8051049B240EA0120A08002E0FFE71B
:102DE0004FF0FF352846AFE718000020F8B504463D
:102DF0004FF0FF3500200090461E1948006810B9BA
:102E00006FF07E00F8BD16480068007918B1002008
:102E100001F018F906461EB1114800680079D8B9CA
:102E20000F490968487A0E49096802236A460F6902
:102E30000A21B84705469DF800008DF800009DF86E
:102E400001008DF801009DF800009DF8011049B2C5
:102E500040EA0120208001E04FF0FF352846D1E70D
:102E600018000020F8B504464FF0FF350020009010
:102E7000461E1948006810B96FF07E00F8BD16486C
:102E80000068007918B1002001F0DCF806461EB198
:102E9000114800680079D8B90F490968487A0E4985
:102EA000096802236A460F690C21B84705469DF858
:102EB00000008DF800009DF801008DF801009DF8DC
:102EC00000009DF8011049B240EA0120208001E095
:102ED0004FF0FF352846D1E718000020F8B504462A
:102EE0004FF0FF3500200090461E1348006810B9CF
:102EF0006FF07E00F8BD10480068007918B100201E
:102F000001F0A0F806461EB10B480068007970B9C0
:102F100009490968487A0849096801236A460F691E
:102F20000021B84705469DF80000207001E04FF0F1
:102F3000FF352846DEE7000018000020F8B50446FB
:102F40004FF0FF3500200090461E1948006810B968
:102F50006FF07E00F8BD16480068007918B10020B7
:102F600001F070F806461EB1114800680079D8B922
:102F70000F490968487A0E49096802236A460F69B1
:102F80001A21B84705469DF800008DF800009DF80D
:102F900001008DF801009DF800009DF8011049B274
:102FA00040EA0120208001E04FF0FF352846D1E7BC
:102FB000180000202DE9FC4104464FF0FF350020A9
:102FC00000900190461E2A48006818B96FF07E00F4
:102FD000BDE8FC8126480068007918B1002001F0A6
:102FE00031F806461EB1224800680079D8BB204956
:102FF0000968487A1E49096806236A460F691A213A
:10300000B84705469DF800008DF800009DF80100C6
:103010008DF801009DF800009DF8011049B240EACA
:10302000012020809DF802008DF802009DF8030029
:103030008DF803009DF802009DF8031049B240EAA4
:10304000012060809DF804008DF804009DF80500C3
:103050008DF805009DF804009DF8051049B240EA7E
:103060000120A08002E0FFE74FF0FF352846AFE7E0
:1030700018000020F8B504464FF0FF3500200090FE
:10308000461E1948006810B96FF07E00F8BD16485A
:103090000068007918B1002000F0D4FF06461EB188
:1030A000114800680079D8B90F490968487A0E4973
:1030B000096802236A460F691E21B84705469DF834
:1030C00000008DF800009DF801008DF801009DF8CA
:1030D00000009DF8011049B240EA0120208001E083
:1030E0004FF0FF352846D1E718000020F8B5044618
:1030F0004FF0FF3500200090461E1948006810B9B7
:103100006FF07E00F8BD16480068007918B1002005
:1031100000F098FF06461EB1114800680079D8B942
:103120000F490968487A0E49096802236A460F69FF
:103130001C21B84705469DF800008DF800009DF859
:1031400001008DF801009DF800009DF8011049B2C2
:1031500040EA0120208001E04FF0FF352846D1E70A
:1031600018000020F8B504464FF0FF35002000900D
:10317000461E1948006810B96FF07E00F8BD164869
:103180000068007918B1002000F05CFF06461EB10F
:10319000114800680079D8B90F490968487A0E4982
:1031A000096802236A460F692E21B84705469DF833
:1031B00000008DF800009DF801008DF801009DF8D9
:1031C00000009DF8011049B240EA0120208001E092
:1031D0004FF0FF352846D1E7180000202DE9FC41CB
:1031E00004464FF0FF35002000900190461E2A480B
:1031F000006818B96FF07E00BDE8FC8126480068C1
:10320000007918B1002000F01DFF06461EB12248CB
:1032100000680079D8BB20490968487A1E490968C6
:1032200006236A460F692E21B84705469DF800001F
:103230008DF800009DF801008DF801009DF8000058
:103240009DF8011049B240EA012020809DF802005B
:103250008DF802009DF803008DF803009DF8020030
:103260009DF8031049B240EA012060809DF80400F7
:103270008DF804009DF805008DF805009DF8040008
:103280009DF8051049B240EA0120A08002E0FFE766
:103290004FF0FF352846AFE718000020F8B5044688
:1032A0004FF0FF3500200090461E1948006810B905
:1032B0006FF07E00F8BD16480068007918B1002054
:1032C00000F0C0FE06461EB1114800680079D8B96A
:1032D0000F490968487A0E49096802236A460F694E
:1032E0003021B84705469DF800008DF800009DF894
:1032F00001008DF801009DF800009DF8011049B211
:1033000040EA0120208001E04FF0FF352846D1E758
:1033100018000020F8B504464FF0FF35002000905B
:10332000461E1948006810B96FF07E00F8BD1648B7
:103330000068007918B1002000F084FE06461EB136
:10334000114800680079D8B90F490968487A0E49D0
:10335000096802236A460F693221B84705469DF87D
:1033600000008DF800009DF801008DF801009DF827
:1033700000009DF8011049B240EA0120208001E0E0
:103380004FF0FF352846D1E718000020F8B5044675
:103390004FF0FF3500200090461E1948006810B914
:1033A0006FF07E00F8BD16480068007918B1002063
:1033B00000F048FE06461EB1114800680079D8B9F1
:1033C0000F490968487A0E49096802236A460F695D
:1033D0001421B84705469DF800008DF800009DF8BF
:1033E00001008DF801009DF800009DF8011049B220
:1033F00040EA0120208001E04FF0FF352846D1E768
:10340000180000202DE9FC4104464FF0FF35002054
:1034100000900190461E2A48006818B96FF07E009F
:10342000BDE8FC8126480068007918B1002000F052
:1034300009FE06461EB1224800680079D8BB204923
:103440000968487A1E49096806236A460F691421EB
:10345000B84705469DF800008DF800009DF8010072
:103460008DF801009DF800009DF8011049B240EA76
:10347000012020809DF802008DF802009DF80300D5
:103480008DF803009DF802009DF8031049B240EA50
:10349000012060809DF804008DF804009DF805006F
:1034A0008DF805009DF804009DF8051049B240EA2A
:1034B0000120A08002E0FFE74FF0FF352846AFE78C
:1034C00018000020F8B504464FF0FF3500200090AA
:1034D000461E1948006810B96FF07E00F8BD164806
:1034E0000068007918B1002000F0ACFD06461EB15E
:1034F000114800680079D8B90F490968487A0E491F
:10350000096802236A460F691621B84705469DF8E7
:1035100000008DF800009DF801008DF801009DF875
:1035200000009DF8011049B240EA0120208001E02E
:103530004FF0FF352846D1E718000020F8B50446C3
:103540004FF0FF3500200090461E1948006810B962
:103550006FF07E00F8BD16480068007918B10020B1
:1035600000F070FD06461EB1114800680079D8B918
:103570000F490968487A0E49096802236A460F69AB
:103580001821B84705469DF800008DF800009DF809
:1035900001008DF801009DF800009DF8011049B26E
:1035A00040EA0120208001E04FF0FF352846D1E7B6
:1035B00018000020F8B504464FF0FF3500200090B9
:1035C000461E1948006810B96FF07E00F8BD164815
:1035D0000068007918B1002000F034FD06461EB1E5
:1035E000114800680079D8B90F490968487A0E492E
:1035F000096802236A460F692821B84705469DF8E5
:1036000000008DF800009DF801008DF801009DF884
:1036100000009DF8011049B240EA0120208001E03D
:103620004FF0FF352846D1E7180000202DE9FC4176
:1036300004464FF0FF35002000900190461E2A48B6
:10364000006818B96FF07E00BDE8FC81264800686C
:10365000007918B1002000F0F5FC06461EB12248A2
:1036600000680079D8BB20490968487A1E49096872
:1036700006236A460F692821B84705469DF80000D1
:103680008DF800009DF801008DF801009DF8000004
:103690009DF8011049B240EA012020809DF8020007
:1036A0008DF802009DF803008DF803009DF80200DC
:1036B0009DF8031049B240EA012060809DF80400A3
:1036C0008DF804009DF805008DF805009DF80400B4
:1036D0009DF8051049B240EA0120A08002E0FFE712
:1036E0004FF0FF352846AFE718000020F8B5044634
:1036F0004FF0FF3500200090461E1948006810B9B1
:103700006FF07E00F8BD16480068007918B10020FF
:1037100000F098FC06461EB1114800680079D8B93F
:103720000F490968487A0E49096802236A460F69F9
:103730002A21B84705469DF800008DF800009DF845
:1037400001008DF801009DF800009DF8011049B2BC
:1037500040EA0120208001E04FF0FF352846D1E704
:1037600018000020F8B504464FF0FF350020009007
:10377000461E1948006810B96FF07E00F8BD164863
:103780000068007918B1002000F05CFC06461EB10C
:10379000114800680079D8B90F490968487A0E497C
:1037A000096802236A460F692C21B84705469DF82F
:1037B00000008DF800009DF801008DF801009DF8D3
:1037C00000009DF8011049B240EA0120208001E08C
:1037D0004FF0FF352846D1E718000020F8B5044621
:1037E0004FF0FF3500200090461E1948006810B9C0
:1037F0006FF07E00F8BD16480068007918B100200F
:1038000000F020FC06461EB1114800680079D8B9C6
:103810000F490968487A0E49096802236A460F6908
:103820000E21B84705469DF800008DF800009DF870
:1038300001008DF801009DF800009DF8011049B2CB
:1038400040EA0120208001E04FF0FF352846D1E713
:10385000180000202DE9FC4104464FF0FF35002000
:1038600000900190461E2A48006818B96FF07E004B
:10387000BDE8FC8126480068007918B1002000F0FE
:10388000E1FB06461EB1224800680079D8BB2049FA
:103890000968487A1E49096806236A460F690E219D
:1038A000B84705469DF800008DF800009DF801001E
:1038B0008DF801009DF800009DF8011049B240EA22
:1038C000012020809DF802008DF802009DF8030081
:1038D0008DF803009DF802009DF8031049B240EAFC
:1038E000012060809DF804008DF804009DF805001B
:1038F0008DF805009DF804009DF8051049B240EAD6
:103900000120A08002E0FFE74FF0FF352846AFE737
:1039100018000020F8B504464FF0FF350020009055
:10392000461E1948006810B96FF07E00F8BD1648B1
:103930000068007918B1002000F084FB06461EB133
:10394000114800680079D8B90F490968487A0E49CA
:10395000096802236A460F691021B84705469DF899
:1039600000008DF800009DF801008DF801009DF821
:1039700000009DF8011049B240EA0120208001E0DA
:103980004FF0FF352846D1E718000020F8B504466F
:103990004FF0FF3500200090461E1948006810B90E
:1039A0006FF07E00F8BD16480068007918B100205D
:1039B00000F048FB06461EB1114800680079D8B9EE
:1039C0000F490968487A0E49096802236A460F6957
:1039D0001221B84705469DF800008DF800009DF8BB
:1039E00001008DF801009DF800009DF8011049B21A
:1039F00040EA0120208001E04FF0FF352846D1E762
:103A000018000020F8B504464FF0FF350020009064
:103A1000461E1948006810B96FF07E00F8BD1648C0
:103A20000068007918B1002000F00CFB06461EB1BA
:103A3000114800680079D8B90F490968487A0E49D9
:103A4000096802236A460F692021B84705469DF898
:103A500000008DF800009DF801008DF801009DF830
:103A600000009DF8011049B240EA0120208001E0E9
:103A70004FF0FF352846D1E7180000202DE9FC4122
:103A800004464FF0FF35002000900190461E334859
:103A9000006818B96FF07E00BDE8FC812F4800680F
:103AA000007918B1002000F0CDFA06461EB12B486F
:103AB00000680079E8BB29490968487A27490968FC
:103AC00008236A460F692021B84705469DF8000083
:103AD0008DF800009DF801008DF801009DF80000B0
:103AE0009DF8011049B240EA012020809DF80200B3
:103AF0008DF802009DF803008DF803009DF8020088
:103B00009DF8031049B240EA012060809DF804004E
:103B10008DF804009DF805008DF805009DF804005F
:103B20009DF8051049B240EA0120A0809DF80600EA
:103B300000E00EE08DF806009DF807008DF8070004
:103B40009DF806009DF8071049B240EA0120E08088
:103B500001E04FF0FF3528469EE7000018000020E6
:103B6000F8B504464FF0FF3500200090461E194876
:103B7000006810B96FF07E00F8BD16480068007943
:103B800018B1002000F05EFA06461EB11148006828
:103B90000079D8B90F490968487A0E4909680223A3
:103BA0006A460F692221B84705469DF800008DF846
:103BB00000009DF801008DF801009DF800009DF8BF
:103BC000011049B240EA0120208001E04FF0FF35AA
:103BD0002846D1E718000020F8B504464FF0FF351D
:103BE00000200090461E1948006810B96FF07E0052
:103BF000F8BD16480068007918B1002000F022FADC
:103C000006461EB1114800680079D8B90F49096805
:103C1000487A0E49096802236A460F692421B84789
:103C200005469DF800008DF800009DF801008DF814
:103C300001009DF800009DF8011049B240EA012002
:103C4000208001E04FF0FF352846D1E71800002022
:103C5000F8B504464FF0FF3500200090461E194885
:103C6000006810B96FF07E00F8BD16480068007952
:103C700018B1002000F0E6F906461EB111480068B0
:103C80000079D8B90F490968487A0E4909680223B2
:103C90006A460F692621B84705469DF800008DF851
:103CA00000009DF801008DF801009DF800009DF8CE
:103CB000011049B240EA0120208001E04FF0FF35B9
:103CC0002846D1E7180000202DE9FC4106464FF0B8
:103CD000FF34002001900090451E2148006818B96B
:103CE0006FF07E00BDE8FC816846FEF719FF0546CF
:103CF0004DBB9DF8000020B1002000F0CFF8284413
:103D000045B2EDB916490968487A15490968012391
:103D100001AA0F693B21B8470446B4B99DF80400D5
:103D200066F3000001900E490968487A0C49096859
:103D3000012301AACF683B21B847204444B204E0E4
:103D40004FF0FF3401E04FF0FF349DF8000028B140
:103D50009DF8000000F0A2F8204444B22046C1E7DC
:103D6000180000202DE9FC4106464FF0FF340020EA
:103D700001900090451E2148006818B96FF07E0040
:103D8000BDE8FC816846FEF7CBFE05464DBB9DF8BD
:103D9000000020B1002000F081F8284445B2EDB9C0
:103DA00016490968487A15490968012301AA0F696B
:103DB0003B21B8470446B4B99DF8040066F382007D
:103DC00001900E490968487A0C490968012301AA43
:103DD000CF683B21B847204444B204E04FF0FF34A1
:103DE00001E04FF0FF349DF8000028B19DF800007D
:103DF00000F054F8204444B22046C1E718000020E7
:103E00002DE9FC4106464FF0FF3400200190009060
:103E1000451E2148006818B96FF07E00BDE8FC819E
:103E20006846FEF77DFE05464DBB9DF8000020B1BB
:103E3000002000F033F8284445B2EDB9164909686E
:103E4000487A15490968012301AA0F693B21B8473F
:103E50000446B4B99DF8040066F3410001900E4990
:103E60000968487A0C490968012301AACF683B21F7
:103E7000B847204444B204E04FF0FF3401E04FF073
:103E8000FF349DF8000028B19DF8000000F006F80E
:103E9000204444B22046C1E7180000202DE9FC412F
:103EA00005464FF0FF34002001900090461E3D482B
:103EB000006818B96FF07E00BDE8FC816846FEF727
:103EC0002FFE0646002E69D19DF8000020BB354923
:103ED0000968487A33490968012301AA0F693D211D
:103EE000B8470446002C5BD19DF8040065F303003D
:103EF00001902C490968487A2A490968012301AAD6
:103F0000CF683D21B847204444B226480068416943
:103F10004FF41670884743E022490968487A2149DE
:103F20000968012301AA0F693D21B847044684B9F5
:103F30009DF8040020F00F000190012201A93D200E
:103F400000F0B4F8204444B21648006841691420D7
:103F5000884715B313490968487A1249096801234B
:103F600001AA0F693D21B8470446B4B99DF8040081
:103F700065F3030001900B490968487A094909680B
:103F8000012301AACF683D21B847204444B2054827
:103F9000006841694FF41670884701E04FF0FF3424
:103FA000204689E7180000202DE9FC4106464FF025
:103FB000FF34002001900090451E2148006818B988
:103FC0006FF07E00BDE8FC816846FEF7A9FD05465E
:103FD0004DBB9DF8000020B10020FFF75FFF284493
:103FE00045B2EDB916490968487A154909680123AF
:103FF00001AA0F693E21B8470446B4B99DF80400F0
:1040000066F3010001900E490968487A0C49096875
:10401000012301AACF683E21B847204444B204E0FE
:104020004FF0FF3401E04FF0FF349DF8000028B15D
:104030009DF80000FFF732FF204444B22046C1E75C
:1040400018000020F8B505464FF0FF34002000901E
:104050001548006810B96FF07E00F8BD1249096874
:10406000487A1149096801236A460E690721B04759
:104070000446ACB99DF8000065F3070000900A49BA
:104080000968487A0849096801236A46CE68072109
:10409000B047204444B22CB903480068057101E0E0
:1040A0004FF0FF342046D8E7180000202DE9F041FA
:1040B00004460D4616464FF0FF370A48006818B907
:1040C0006FF07E00BDE8F08106490968487A05492D
:1040D000096833462A46D1F80CC02146E047074616
:1040E0003846EFE71800002001460D4A12884A437F
:1040F0004FF0E0235A6100229A6101221A6100BF49
:104100004FF0E022106900F001021AB100F4803291
:10411000002AF5D000224FF0E0231A619A6170471F
:104120001600002001460D4A12784A434FF0E02362
:104130005A6100229A6101221A6100BF4FF0E02209
:10414000106900F001021AB100F48032002AF5D0A3
:1041500000224FF0E0231A619A617047140000209A
:1041600070B504460D46E1B20548FDF765F900BF9C
:1041700040210348FDF7E6F80028F9D0204670BD3D
:10418000003801408CB000200B900A9009900890F4
:1041900007900690059004900390441E00BF00BF56
:1041A00000BF00BF00BF00BF00BF029000BFFCF710
:1041B0009BFC4820FCF7A8FEFDF772F860A0FDF715
:1041C00041F9FCF7E5FB00BF01210820FCF77CFC6E
:1041D000C020ADF8040003208DF8060010208DF8F3
:1041E000070001A95A48FCF711FAC0215848FCF70A
:1041F000E1FA00BF0A20FCF73DFC8220FCF742FCFC
:104200000A20FCF747FC53A0FDF71CF9FCF7ECF87B
:1042100018B9292152A0FDF715F95BA0FDF712F995
:10422000FEF7AAF902A8FEF759FE9DF808105AA059
:10423000FDF708F95CA0FDF705F980E04FF47A700E
:10424000FFF752FF0020FFF7AFFE0720FFF726FE23
:104250000BA8FEF72FFD04440AA8FEF7C7FD04448F
:1042600009A8FEF7FFFD0444214654A0FDF7EAF833
:10427000BDF92C1058A0FDF7E5F8BDF928105BA09A
:10428000FDF7E0F8BDF924105DA0FDF7DBF861A0B3
:10429000FDF7D8F808A8FFF7A1FA044407A8FFF72C
:1042A00039FB044406A8FFF771FB044421465AA0D9
:1042B000FDF7C8F8BDF920105DA0FDF7C3F8BDF902
:1042C0001C1060A0FDF7BEF8BDF9181062A0FDF744
:1042D000B9F850A0FDF7B6F805A8FFF757F8044461
:1042E00004A8FFF7EFF8044403A8FFF727F90444F4
:1042F00021465EA0FDF7A6F8BDF9141062A0FDF7F7
:10430000A1F8BDF9101065A0FDF79CF8BDF90C10DF
:1043100067A0FDF797F83FA0FDF794F84FF47A7087
:10432000FFF7E2FE4FF47A70FFF7DEFE02A8FEF719
:10433000D5FD9DF8081018A0FDF784F800247DE74E
:1043400068656C6C6F206D61696E21210D0A00003B
:10435000000C014068656C6C6F206363630D0A009C
:1043600049324320427573204E6F2061646472733A
:104370003A20257820424E4F3035352064657669E5
:10438000636521210D0A00002B2B2B2B2B2B2B2BB4
:104390002B2B2B2B2B0D0A00636869705F6964203F
:1043A0003D2025640D0A00003D3D3D3D3D3D3D3D28
:1043B0003D3D3D3D3D3D0D0A0000000061636365EC
:1043C0006C20446174613A20636F6D726573203DA7
:1043D0002025640D0A000000616363656C5F646101
:1043E000746178203D2025640D0A000061636365D7
:1043F0006C5F6461746179203D2025640D0A0000C2
:10440000616363656C5F646174617A203D2025643B
:104410000D0A0000200D0A006D616720446174617F
:104420003A20636F6D726573203D2025640D0A008C
:104430006D61675F6461746178203D2025640D0AB9
:10444000000000006D61675F6461746179203D2048
:1044500025640D0A000000006D61675F646174618E
:104460007A203D2025640D0A000000006779726FF4
:1044700020446174613A20636F6D726573203D2042
:1044800025640D0A000000006779726F5F64617433
:104490006178203D2025640D0A0000006779726F65
:1044A0005F6461746179203D2025640D0A0000007D
:1044B0006779726F5F646174617A203D2025640DB5
:1044C0000A000000E4440008000000202000000072
:1044D00064140008044500082000002018040000AF
:1044E0007414000800000000010203040102030428
:1044F000060708090204060800000000000000008A
:0445000000000000B7
:0400000508000131BD
:00000001FF
